:020000040800F2
:100000000050002051090008890A00088B0A0008E6
:100010008D0A00088F0A0008910A000800000000FD
:10002000000000000000000000000000930A00082B
:10003000950A000800000000970A0008990A0008C5
:100040009909000899090008990900089909000808
:1000500099090008990900089909000899090008F8
:1000600099090008990900089909000899090008E8
:1000700099090008990900089909000899090008D8
:1000800099090008990900089909000899090008C8
:1000900099090008990900089909000899090008B8
:1000A00099090008990900089909000899090008A8
:1000B0009909000899090008990900089909000898
:1000C0009909000899090008990900089909000888
:1000D0009909000899090008990900089909000878
:1000E0009909000899090008990900080000000012
:1000F0000000000000000000000000000000000000
:0C01000000000000000000005FF808F1A3
:10010C0010B5054C237833B9044B13B10448AFF345
:10011C0000800123237010BD0C00002000000000A3
:10012C00000B000808B5034B1BB103490348AFF3A0
:10013C00008008BD0000000010000020000B00082B
:10014C000F4B1A6842F001021A6059680D4A0A40B6
:10015C005A601A6822F0847222F480321A601A688B
:10016C0022F480221A605A6822F4FE025A604FF47C
:10017C001F029A604FF00062034B9A60704700BFF9
:10018C00001002400000FFF800ED00E07047000096
:10019C004FF47A7370B50D4E05463278B3FBF2F31B
:1001AC000B4A1068B0FBF3F000F07AF8044650B933
:1001BC000F2D08D8024629464FF0FF3000F040F8CA
:1001CC002046756070BD0120FCE700BF04000020D4
:1001DC0000000020074A08B51368032043F0100301
:1001EC00136000F01BF80F20FFF7D2FFFFF7CEFFD4
:1001FC00002008BD00200240034A044B11681B7804
:10020C000B441360704700BF28000020040000203E
:10021C00014B1868704700BF2800002007490302F3
:10022C00CA6803F4E06322F4E0621204120C134374
:10023C0043F0BF6343F40033CB60704700ED00E044
:10024C00154B30B5DC68C4F30224C4F10703251D3B
:10025C00042B28BF0423062D4FF0FF3594BF002438
:10026C00033C05FA03F321EA0303A54022EA050245
:10027C00A340002843EA0203ACBF00F16040074AE8
:10028C004FEA0313DBB2ABBF00F5614000F00F0087
:10029C0080F80033135430BD00ED00E014ED00E0A5
:1002AC000138B0F1807F0BD24FF0E023F021054AEA
:1002BC00586182F823100020072298611A61704758
:1002CC000120704700ED00E02DE9F74F0024264691
:1002DC00DFF888C1624BDFF88CE1DFF88C810A68AB
:1002EC0032FA06F502D103B0BDE8F08F0127B74012
:1002FC0002EA070537EA02027AD14A68032A07D8CC
:10030C00013A022A00F28380DFE802F092979D0006
:10031C00122A00F095806DD8112A00F08B80FF2DE9
:10032C0098BF81464FF00F0B88BF00F104094FEACC
:10033C008602D9F8007088BF203A0BFA02FA27EA35
:10034C000A0704FA02F21743C9F80070D1F80490B6
:10035C0019F0805F4CD0DCF8182026F0030742F02F
:10036C000102CCF81820DCF8182007F1804702F0C5
:10037C000102019207F5803706F0030A019A4FEA51
:10038C008A0ABA680BFA0AFB22EA0B0B374A90422C
:10039C005DD002F5806290425BD002F580629042A3
:1003AC0059D002F58062904214BF0422032202FA53
:1003BC000AF242EA0B02BA609A6819F4801F14BF61
:1003CC002A43AA439A60DA6819F4001F14BF2A431F
:1003DC00AA43DA605A6819F4003F14BF2A43AA43AF
:1003EC005A601A6819F4803F14BF2A43AA431A6052
:1003FC00013674E7DFF878904A4508D010D8A9F593
:10040C0080194A4503D0724501D0424587D18A688C
:10041C00DAB1012A4FF008040CBF076147617EE78F
:10042C00DFF850904A45F2D009F580394A45EDE79E
:10043C00CC6874E7CC68043471E7CC6808346EE798
:10044C00CC680C346BE7002469E7042467E70022CE
:10045C00ADE70122ABE70222A9E700BF0010024082
:10046C0000040140000021100000111000080140A0
:10047C000000221000003110C36801EA030221EAD7
:10048C00030141EA02410161704700002DE9F3418B
:10049C00054638B30368DB0710D42B689F075ED47E
:1004AC002B68190700F195802B685A0700F1C18061
:1004BC00EB69002B40F02C81002029E0904C636804
:1004CC0003F00C03042B07D0636803F00C03082B18
:1004DC000AD16368DE0307D523689C03DDD56B68FE
:1004EC00002BDAD1012013E06B68B3F5803F12D1F9
:1004FC00236843F480332360FFF78AFE06462368A3
:10050C009803CAD4FFF784FE801B6428F7D9032014
:10051C0002B0BDE8F0819BB9236823F480332360DB
:10052C00236823F480232360FFF772FE06462368BA
:10053C009903B2D5FFF76CFE801B6428F7D9E6E768
:10054C00B3F5A02F236803D143F480232360CFE7B6
:10055C0023F480332360236823F48023CBE7684C97
:10056C00636813F00C0F07D0636803F00C03082BBF
:10057C0010D16368DA030DD423689B0702D52B696D
:10058C00012BAFD123686A6923F0F80343EAC20355
:10059C00236085E72A695B4B6AB101221A60FFF779
:1005AC0037FE064623689F07ECD4FFF731FE801B0D
:1005BC000228F7D9ABE71A60FFF72AFE0646236834
:1005CC0098077FF56DAFFFF723FE801B0228F6D945
:1005DC009DE7AA694A4E4B4BE2B10122C3F8802435
:1005EC00FFF716FE0446736A9B070DD54FF4FA52BB
:1005FC00454B1B68B3FBF2F3019300BF019B5A1EE2
:10060C000192002BF9D14FE7FFF702FE001B0228E5
:10061C00E9D97CE7C3F88024FFF7FAFD0446736A36
:10062C009F077FF541AFFFF7F3FD001B0228F6D9BA
:10063C006DE7334CE369D80024D40127E36943F018
:10064C008053E361E36903F080530093009B2F4ECA
:10065C003368D90518D5EB68012B26D1236A43F0F2
:10066C0001032362FFF7D4FD41F288380646236A62
:10067C009B073FD5002F3FF41BAFE36923F080535A
:10068C00E36115E70027E2E7336843F480733360D6
:10069C00FFF7BEFD80463368DA05DCD4FFF7B8FD02
:1006AC00A0EB08006428F6D931E7ABB9236A41F214
:1006BC00883823F001032362236A23F004032362A6
:1006CC00FFF7A6FD0646236A9807D3D5FFF7A0FDD2
:1006DC00801B4045F7D91AE7052B236A03D143F059
:1006EC0004032362BAE723F001032362236A23F095
:1006FC000403B6E7FFF78CFD801B4045B7D906E72E
:10070C000010024000004242000000200070004037
:10071C002A4C626802F00C02082A3ED00022022BFE
:10072C00274B1A662CD1FFF773FD064623689901F7
:10073C0020D42B6AB3F5803F05D16268A96822F4F6
:10074C0000320A436260696A62680B4322F47412D5
:10075C001343012263601A4B1A66FFF759FD0546D5
:10076C0023689A013FF5A8AEFFF752FD401B022803
:10077C00F6D9CCE6FFF74CFD801B0228D6D9C6E68D
:10078C00FFF746FD054623689B017FF595AEFFF705
:10079C003FFD401B0228F6D9B9E6012B3FF4A2AE6F
:1007AC0060682B6A00F480329A427FF49BAE6B6ACD
:1007BC0000F47010C01A18BF0120A9E60010024006
:1007CC00000042420D494A6802F00C03082B12D17A
:1007DC000B4BC2F38340D203185C09D54A68094914
:1007EC00C2F34042484313441B7CB0FBF3F0704708
:1007FC00054B584370470348704700BF0010024038
:10080C00300B000800127A0000093D002DE9F04180
:10081C000D46044610B90120BDE8F081444A136826
:10082C0003F007038B4228D321688E0730D4CA0704
:10083C0043D43F4A136803F00703AB4265D82268E0
:10084C003C4D12F0040F6CD1130706D56B6822696E
:10085C0023F4605343EAC2036B60FFF7B3FF6B688A
:10086C00354AC3F30313D35CD840344B1860344B74
:10087C001868FFF78DFC0020CEE7136823F0070300
:10088C000B431360136803F007038B42C3D1CBE710
:10089C00284B11F0040F1EBF5A6842F4E0625A60F4
:1008AC00080742BF5A6842F460525A605A68A068FE
:1008BC0022F0F00202435A60B9E762681D4E012A29
:1008CC0033681AD113F4003FA5D0736841F288380D
:1008DC0023F0030313437360FFF79AFC0746736816
:1008EC00626803F00C03B3EB820FA2D0FFF790FC0D
:1008FC00C01B4045F3D903208EE7022A02D113F026
:10090C00007FE1E713F0020FDEE7136823F0070323
:10091C002B431360136803F00703AB427FF47BAFE8
:10092C008DE76B68E16823F4E0630B436B608BE746
:10093C000020024000100240180B000800000020AC
:10094C0008000020002103E00B4B5B58435004319E
:10095C000A480B4B42189A42F6D30A4A02E000238B
:10096C0042F8043B084B9A42F9D3FFF7E9FB00F03D
:10097C009DF800F037F870474C0B00080000002081
:10098C000C0000200C00002040000020FEE710B5F9
:10099C0090B01422002101A800F080F82022002140
:1009AC0007A800F07BF8102301220224CDE90A23CA
:1009BC004FF4601306A806940D940F93FFF766FD91
:1009CC0000B1FEE70F23CDE901344FF480630390AF
:1009DC000590214601A80493FFF718FF00B1FEE72C
:1009EC0010B010BD204D07B5FFF7F4FBFFF7CFFF9C
:1009FC00AB691E4C43F00403AB61AB69214603F0B9
:100A0C0004030093009B0123C4E901330323E36037
:100A1C00202317482360FFF757FCAB69002043F0F5
:100A2C001003AB61AB69214603F010030193019BEA
:100A3C004FF40053C4E900300E48FFF745FC0D4C51
:100A4C00A5F58435A3689A04FCD4A36813F4005369
:100A5C00F8D1094A202128461360FFF70DFDA36841
:100A6C009B04FCD5EEE700BF001002402C000020D8
:100A7C0000080140001001403C0000207047FEE7D8
:100A8C00FEE7FEE7FEE7704770477047024A1368BF
:100A9C0001331360FFF7B0BB3C0000200346024457
:100AAC00934200D1704703F8011BF9E770B500269B
:100ABC000C4D0D4C641BA410A64209D100F01AF881
:100ACC0000260A4D0A4C641BA410A64205D170BD29
:100ADC0055F8043B98470136EEE755F8043B984728
:100AEC000136F2E7440B0008440B0008440B0008E5
:100AFC00480B0008F8B500BFF8BC08BC9E46704710
:0C0B0C00F8B500BFF8BC08BC9E4670475E
:100B180000000000000000000102030406070809A5
:100B28000000000001020304020304050607080987
:0C0B38000A0B0C0D0E0F10100102000043
:040B44003101000873
:040B48000D01000893
:0C0B4C000024F400010000001000000074
:040000050800095195
:00000001FF
